:020000040000FA
:1000000002174B7860E6FE08E67DFFC39401EE948C
:1000100000502B7863E6640118467022785FE6187A
:1000200046701B785CE6B48115785AE6B4060F7BFF
:10003000FF7A23796E7D017C00121FF3E4FDAF058A
:100040002280FE021BD275AE81E5AE20E7FBE5AF54
:10005000A2E12202083A90003E1202829002C712E8
:10006000028E90003E12029A000000009002C71219
:10007000028222021F6275D108222202123EBB01B7
:100080000689828A83E0225002E722BBFE02E32235
:1000900089828A83E49322BB010CE58229F582E5FB
:1000A000833AF583E0225006E92582F8E622BBFE7A
:1000B00006E92582F8E222E58229F582E5833AF510
:1000C00083E49322BB010689828A83F0225002F7DF
:1000D00022BBFE01F322BB010A89828A83E0F5F08C
:1000E000A3E022500687F009E71922BBFE07E3F5DB
:1000F000F009E3192289828A83E493F5F07401936D
:1001000022BB0110E58229F582E5833AF583E0F50B
:10011000F0A3E0225009E92582F886F008E622BB28
:10012000FE0AE92582F8E2F5F008E222E5832AF5E5
:1001300083E993F5F0A3E99322BB010789828A83BF
:100140000203E6500B09C5F027F7C5F01937F7226F
:10015000BBFE0D09F8E325F0F3C5F019E338F322EF
:10016000F889828A8374019325F0C5F0F8E4933806
:1001700022BB010A89828A83F0E5F0A3F0225006AF
:10018000F709A7F01922BBFE06F3E5F009F31922DF
:1001900075F008758200EF2FFFEE33FECD33CDCC26
:1001A00033CCC58233C5829BED9AEC99E5829840A9
:1001B0000CF582EE9BFEED9AFDEC99FC0FD5F0D686
:1001C000E4CEFBE4CDFAE4CCF9A88222B800C1B9B0
:1001D0000059BA002DEC8BF084CFCECDFCE5F0CBEE
:1001E000F97818EF2FFFEE33FEED33FDEC33FCEB27
:1001F00033FB10D703994004EB99FB0FD8E5E4F9E2
:10020000FA227818EF2FFFEE33FEED33FDEC33FCCE
:10021000C933C910D7059BE99A4007EC9BFCE99AC2
:10022000F90FD8E0E4C9FAE4CCFB2275F010EF2F07
:10023000FFEE33FEED33FDCC33CCC833C810D70707
:100240009BEC9AE899400AED9BFDEC9AFCE899F842
:100250000FD5F0DAE4CDFBE4CCFAE4C8F922EB9F49
:10026000F5F0EA9E42F0E99D42F0E89C45F022E874
:10027000600FECC313FCED13FDEE13FEEF13FFD87C
:10028000F122E0FCA3E0FDA3E0FEA3E0FF22ECF0FE
:10029000A3EDF0A3EEF0A3EFF022A8828583F0D0C7
:1002A00083D0821202B11202B11202B11202B1E481
:1002B00073E493A3C583C5F0C583C8C582C8F0A302
:1002C000C583C5F0C583C8C582C822E6FB08E6FA27
:1002D00008E6F922EBF608EAF608E9F622E0FBA3C5
:1002E000E0FAA3E0F922EBF0A3EAF0A3E9F022BBE5
:1002F000010789828A830202DD5005E9F80202CBF8
:10030000BBFE05E9F80203FC89828A83020405BB6F
:10031000010DE58229F582E5833AF5830202DD507D
:1003200007E92582F80202CBBBFE07E92582F80225
:1003300003FCE58229F582E5833AF583020405D0C2
:1003400083D082F8E4937012740193700DA3A39389
:10035000F8740193F5828883E4737402936860EF04
:10036000A3A3A380DF8A838982E473EC8EF0A4CCFC
:10037000C5F0CCCDF8EFA4CEC5F02DFDE43CFCE8F3
:10038000A42EC8C5F03DFDE43CFCEFA4FFE5F02839
:10039000FEE43DFDE43CFC22EF4E6012EF60010EF6
:1003A000EDBB010B89828A83F0A3DFFCDEFA228990
:1003B000F05007F709DFFCA9F022BBFEFCF309DFD0
:1003C000FCA9F022F8BB010DE58229F582E5833A0C
:1003D000F583E8F0225006E92582C8F622BBFE0527
:1003E000E92582C8F222C5F0F8A3E028F0C5F0F8AC
:1003F000E582158270021583E038F022E2FB08E204
:10040000FA08E2F922E493FB740193FA740293F977
:10041000229000D4E0FF24EF607E24FE70030205EA
:100420001224F2700302054F24FE700302054F24CC
:10043000E2700302054F24FE70030206132451608C
:10044000490460030206829000D6E0FF6401701444
:10045000A3E0B40106C296D2078024D296C2073028
:1004600006218010EF6402701E9000D7E0B40108EE
:10047000C295D20675BB0A22D295C2063007047512
:10048000BB0F2275BB1F22C294229000D6E06004ED
:10049000439104225391FB2290006574FEF0A374F3
:1004A00002F0A37412F09000D6E06401700D900089
:1004B0006804F07F00209601FF802C9000D6E06455
:1004C00002700F9000687402F07F002094027F0198
:1004D00080159000D6E0640370189000687403F0F3
:1004E0007F002095027F01900069EFF09002CCE43C
:1004F000800AE4900068F0A3F09002CCF0A37400AE
:10050000F0A3741EF07B017A0079657D0A7C0002FD
:100510001DC29000D6E0FFB4010CA3E0B40103C3F8
:100520008001D3929622EFB4020E9000D7E0B4017E
:1005300003C38001D39294229000D6E06403600349
:10054000020682A3E0B40103C38001D392952290F6
:10055000006574AAF09000677401F0900066744220
:10056000F0AF937537008F38E538753800F537AF41
:1005700092EF2538F538E43537F53730072A30065D
:1005800027AF38AB07FAE4C39BFBE49AFA740194F3
:1005900000F9E49400F8E47F107E27FDFC121CAF04
:1005A000E47B02FAF9F8801FAE37AF38AB07AA0632
:1005B000E4C39BFBE49AFA74019400F9E49400F814
:1005C000E47F107E27FDFC121CAF8E398F3AE53A8E
:1005D000B4E80DE539B403089000687403F0803086
:1005E000E53A6464453970089000687402F0802030
:1005F000E53A640A4539700790006804F08011E517
:100600003A640445399000687003F0800374FFF089
:10061000D200229000D6E0FFB4031630070B30065C
:10062000087535FF7536FB80537535FF7536F680D6
:100630004BEFB4021630070B3006087535FF7536E0
:10064000CE80397535FF75369C8031EFB401163098
:10065000070B3006087535FE75360C801F7535FCA6
:100660007536188017EF701A30070B30060875358D
:10067000FB75361E80067535F675363C85359385D7
:100680003692228F407541FD785CE6FFC413540317
:100690006402600302075608E60470030207372469
:1006A000FD6003020756785EE6FE08E6FFEE600393
:1006B000020756EF24FE604424FE605324FC60626F
:1006C00024076003020756900042E030E00854FE21
:1006D000F04402F08007900042E054FDF07F0112E8
:1006E00018DC12217190003E12029A00000008905E
:1006F0000042E0FF30E15C4401F0805790003E1280
:100700000282EF4410FFEC90003E12028E80449073
:10071000003E120282EF4420FFEC90003E12028E57
:1007200080317BFF7A23796C754D00754E02C210C3
:10073000E4FF1210CA801C785EB6371A08B60B1692
:100740007BFF7A23796B754D00754E01C210E4FF73
:100750001210CAE4F541E5417019900042E030E022
:100760000F90003E120282EC4D4E4F600312204F5C
:10077000AF4122785CE66480703308E6640660036B
:1007800002083708E6FC08E6FDEC64036003020893
:1007900037AF05EF64EE60030208377BFF7A2279FA
:1007A0006790226793754D00F54E02082D785CE640
:1007B00064C0703608E6640170307861E66404183D
:1007C000467027F5427543287862E6FE08E6FFD3B7
:1007D000E5439FE5429E40048E428F437BFF7A2291
:1007E000797985424D85434E8043785CE664C170DB
:1007F0004608E6640170407860E6FE08E6FF64059E
:100800004E6004EF4E70307542007543927862E698
:10081000FE08E6FFD3E5439FE5429E40048E428FEB
:10082000437BFF7A2279A185424D85434EC210E475
:10083000FF1210CAE4F541AF4122C0E0C0F0C0830E
:10084000C082C0D075D000C000C001C002C003C0CB
:1008500004C005C006C00785A72375A700E5BB64D3
:100860000F600302091BAFBDAEBE7C0C7DE412031A
:100870006BE4FB7A04F9F81201CC8F158E148D13FA
:100880008C12AF15AE14AD13AC12780812026FAC17
:100890000AAD0B749B2DF58274013CF583EFF0E5F6
:1008A00015FFAC0AAD0B749C2DF58274013CF583E9
:1008B000EFF0050FE50F7002050E7402250BF50B26
:1008C000E4350AF50AC3E50F9511E50E9510403F92
:1008D000D203750E00750F00750A00750B007527A1
:1008E0000175280175299BE51125E0F52BE51033ED
:1008F000F52A7B017A027902121B807B017A017949
:100900009B12208E7D007B017A01799B1203982037
:1009100006030209BA75BB0A0209BAADBDACBE7EB8
:100920000C7FE412036BE4FB7A04F9F81201CCACFF
:1009300006AD07AF04AA08AB0974372BF582740122
:100940003AF583ECF0AF05AC08AD0974382DF582AB
:1009500074013CF583EFF0050DE50D7002050C7494
:10096000022509F509E43508F508C3E50D9511E5FB
:100970000C9510403FD204750C00750D00750800F1
:10098000750900752701752801752937E51125E0DE
:10099000F52BE51033F52A7B017A027966121B806C
:1009A0007B017A01793712208E7D007B017A0179F3
:1009B0003712039830070375BB0FC2ED8523A7D00C
:1009C00007D006D005D004D003D002D001D000D08B
:1009D000D0D082D083D0F0D0E0329002C71202E6AD
:1009E000900011120097900043F0E49002D4F09030
:1009F00002D4E0FF7C007BFF2431F9EC3422FA12B0
:100A0000007EFEEF7B012400F9EC3400FAEE1200C8
:100A1000C49002D4E004F0E0B412D4E49002D4F024
:100A20009002D4E0FF90224393FE74122FF582E4EB
:100A30003400F583EEF09002D4E004F0E0B420E05E
:100A40009002C71202DD1200D6FAE5F0FFEAFE902E
:100A50000008EEF0A3EFF09002C71202DD90000252
:100A6000120101FAE5F0FFEAFE90000AEEF0A3EFB2
:100A7000F07BFF7A2279639000321202E69002C77F
:100A80001202DD90000412030F9000351202E6906E
:100A900002C71202DD90000712030F900038120205
:100AA000E69002C71202DD90000A12030F90003B8D
:100AB0001202E69002C71202DD90000D120097FFAD
:100AC000C394FA500590001AEFF09002C71202DDAD
:100AD00090000F120101FAE5F0FFEAFE90000CEE23
:100AE000F0A3EFF09002C71202DD90000E12009703
:100AF000900019F07B017A0079009002CA1202E698
:100B00007A0079129002CD1202E67A0079329002D0
:100B1000D01202E69002D37404F0E4900057F090F3
:100B2000003E12029A00000000E4900042F07A02B7
:100B300079CA0213A5121E817BFF7A237959120903
:100B4000DA7BFF7A187961122114D295D294D29669
:100B50007B017A01799B12208E7D007B017A0179DD
:100B60009B1203987B017A0179FF12208E7D007B16
:100B7000017A0179FF1203987B017A01799B122097
:100B80008E7D007B017A0179371203987B017A010F
:100B900079FF12208E7D007B017A0279631203981F
:100BA000D2AF300339C2039001FF74AAF0A37402DC
:100BB000F0AF11EF25E0A3F0E51125E0FFE51033DC
:100BC000FEEF2403FDE43EFC9002CCE4F0A37400AD
:100BD000F0A3741EF07B017A0179FF121DC230046C
:100BE00039C20490026374AAF0A37403F0AF11EF4A
:100BF00025E0A3F0E51125E0FFE51033FEEF240327
:100C0000FDE43EFC9002CCE4F0A37400F0A3741E5B
:100C1000F07B017A027963121DC2300085C2009018
:100C200002CCE4F0A37400F0A3741EF07B017A0000
:100C300079657D047C00121DC2020BA28F438D4496
:100C40008A458B46E54364017054E544705090003A
:100C50005B1202DDE5458546F0120139C390006460
:100C6000E09546FF900063E09545FEF0A3EFF04E5F
:100C70006003020D25E54645456017E546543F7083
:100C800011FBFAF9F54DF54ED2107F011210CA0290
:100C90000D2590003E120282EF4402020D1DE54335
:100CA00064026003020D25E544705390005E120259
:100CB000DDE5458546F0120139C3900062E09546B6
:100CC000F0900061E09545F0C3E5469440E5459419
:100CD00000500B90003E120282EF4404803F9000CF
:100CE00061E0FEA3E0FF4E703CEF543F7037FBFA2B
:100CF000F9F51AF51BD20E7F021215978027E544ED
:100D0000B4F22290003E120282EE4401FEEC90000A
:100D10003E12028E90003E120282EF4404FFEC90DD
:100D2000003E12028E900042E030E00F90003E1232
:100D30000282EC4D4E4F600312204FE4FEFF22E48E
:100D4000FDFC7544FF785CE664806003020E3D782C
:100D50005EE6FE08E6F540EEFFE46003020E1BEFE0
:100D600024FE602514604424026003020E1BE5404B
:100D70006003020E1B787A1202CB8B418A428943B0
:100D800012007E7C00FD020E1BE5406003020E1B7C
:100D9000787D1202CB8B418A428943900002120176
:100DA00001FAE5F0FFEAFCEFFD807078801202CBDB
:100DB00075F003E540A4F58285F08312030F8B41A3
:100DC0008A428943E540700BFC7D047864E65480D8
:100DD000F680487860E6FE08E6FF4E600AEF640998
:100DE0007003EE64047034E540C3785996502CAB20
:100DF00041AA42A9439000011200977C00FD120015
:100E00007E547FFF7864E654804FFFF674012543DB
:100E1000F543E43542F542EF4480F6ED4C601E7830
:100E200062E6FE08E6FFD3ED9FEC9E4004AC06AD03
:100E300007AB41AA42A943121FF3E4F544AF442291
:100E4000786BE613920A7868E6FE08E6FFC39440E2
:100E5000EE940040047F4080008F408540417864DC
:100E6000E6FF547F6401705EEF30E721081202CB89
:100E7000C2127D02E4FF1219477867740226F61841
:100E8000E436F6154015407864E6547FF6E4F54202
:100E9000E540C313FFE542C39F504378651202CB80
:100EA000C2127D01E4FF1219477867740126F61813
:100EB000E436F67BFF7A23796EC2127D01E4FF12DD
:100EC0001947054280CA78651202CBC212AD40E4D0
:100ED000FF1219477867E54026F618E436F6786B76
:100EE000E654FBF6C37869E69541FF18E69400FEE8
:100EF000F608EFF64E701EE5416440601875AE11BD
:100F000075AF0AE5AE20E7FB786A7601E47864F60F
:100F1000786BF6800B75AE1175AF02E5AE20E7FB7E
:100F2000300A14E541FB7A007868E6F54708E6F5F3
:100F300048E4FDFF120C3C22C20A7F0112219512E7
:100F40002164501575AE94E5AE20E7FB53AFBFE5C5
:100F5000AE20E70302100080F61221894003021040
:100F6000001222278F3F7878E66403600A08E6447F
:100F700002F67540F98068C37877E6953F18E694E5
:100F800000500E7878760108E64402F67540F2804B
:100F90004E78731202CBAD3F7F01121C217879E6A7
:100FA00054FDF6AF3F7E00C37877E69FF618E69EC5
:100FB000F618EF26F618EE36F67877E6184660064D
:100FC000E53F6440600678787601D20AE4F5407522
:100FD000AE94E5AE20E7FB53AFFEE5AE20E7FB782D
:100FE00079E630E01B300A0354FEF6E53FFB7A0059
:100FF0007876E6F54708E6F548AD407F02120C3CEE
:1010000022753FFDE4FF12219512213D400512217A
:1010100030501D75AE11E4F5AFE5AE20E7FB75AEBF
:101020001175AF80E5AE20E7FB786A7601E408F63B
:1010300012217D40030210BB786BE6FF30E3028093
:1010400077786AE6640170627864F6121A7C7F5CD5
:101050001206838F3FE53FB4FD0F785CE6FFC413B3
:1010600054037005121AD58F3FE4FF122195E53F16
:1010700070337863E61846700D75AE1175AF48E5AC
:10108000AE30E73780F975AE1175AF40E5AE20E7B9
:10109000FB785CE620E724786AE66403601D08E6D6
:1010A0004408F680161220798011786AE6B40305A8
:1010B0001216298006786BE64402F6786AE6B402D6
:1010C0000812214A4003120E40228F498B4A8A4B54
:1010D000894C85A750E549600B1460088000120018
:1010E000417FFC22E549600A785AE6640660037F86
:1010F000F722E54975F007A42465F9894FE54F24E7
:1011000005F8E6FF64016009EF7FFEB405027FFB8E
:1011100022122219921175A71053CEFEAB4AAA4B88
:10112000A94CA84F1202D4E54F2403F8A64D08A6F7
:101130004EE54F2405F87602A210E4335401FFE592
:101140004F2406F8E654FE4FF6E54914600B047090
:1011500027786BE64404F6801FD3E54E9440E54DB6
:10116000940040047D408004AF4EAD07786C1202BD
:10117000CBD2127F0112194730110675A71043CE4A
:10118000018550A77F00227540FF785EE6FC08E6E7
:10119000FDEC600302123B785CE6541F6003021210
:1011A0003B7863E61846600302123B18E618466077
:1011B0000302123B785AE66404703EED4C601478EA
:1011C0007D1202CB900005120097785F66700218BE
:1011D000E67068785FE67858F6787D1202CB90006A
:1011E00005120097785F66700218E6704BD20A12FB
:1011F0001EAC7F06121E25803F785AE66406703BBF
:10120000785EE6FE08E6FF4E6012787D1202CB9013
:101210000005120097B50723E4B5061F785FE6784E
:1012200058F6785FE61846700A7F04121E25121ED3
:10123000558005C20A121EACE4F540AF4022C0E062
:10124000C0F0C083C082C0D075D000C000C001C053
:1012500002C003C004C005C006C0071221A08F3B16
:101260001221AB8F3C1221B68F3D1221C18F3EE57A
:101270003B30E328786BE6FF30E10618E664036054
:101280000AEF30E209786AE6B40203433C01787958
:10129000E630E10818E6B40303433D02E53B30E2E3
:1012A00009121CF320B103433B01E53B30E103127B
:1012B0002220E53B30E003122122E53C30E103121D
:1012C00014F7E53D30E103120F38E53C30E003123E
:1012D0001001AF3E122195D007D006D005D004D022
:1012E00003D002D001D000D0D0D082D083D0F0D0B3
:1012F000E0327540FF7863E664021846600302132B
:10130000A2785FE6184660030213A2785CE6FF202D
:10131000E7030213A2785AE6C3940450030213A20F
:10132000E4F556F557EF541F146018146023240297
:1013300070617861E61846705A1221E150524356A6
:1013400001804DC37861E6940118E6940050448012
:101350003F7860E6FE08E6FFAC06547F4C700878E4
:101360005AE6B404028029785AE6B40626EF247FB0
:1013700060122480701D7878E6B4060675560175F3
:101380005700800C7871E6B4060675560175570053
:10139000E4F540E540700BFB7A0079567D02FC12C3
:1013A0001FF3AF40228B2E8A2F893085A73175A776
:1013B0001053CEFE122230E4FF74582FF8E4F60FDB
:1013C000BF2BF6AB2EAA2FA9301202EF787A1202A9
:1013D000D4AB2EAA2FA93090000312030F787D12F0
:1013E00002D4AB2EAA2FA93090000612030F7880EA
:1013F0001202D4AB2EAA2FA93090000912009778C0
:1014000059F675A72053B5F875A72043B32075A7E3
:101410002043B58075AE0175AF08E5AE20E7FB75DA
:10142000AE0B75AF0FE5AE20E7FB122064785A30A3
:10143000B10476038002760175A71043CE01853191
:10144000A775AE0175AF01E5AE20E7FB7F00227501
:1014500040FF7863E6184660030214F4785CE654B3
:101460001F24FE60030214F4785FE618466003024E
:1014700014F47860E6FE08E6547FFF4E700D785A4B
:10148000E6C394044005E4F5408069C3EF9403EE9D
:1014900094005060785AE664067059F5407861E629
:1014A000547FFF1221957861E630E70B75AE117518
:1014B000AF40E5AE20E7FB7861E620E71875AE9413
:1014C000E5AE20E7FB53AFDFE5AE20E7FB43AF809F
:1014D000E5AE20E7FB7861E6247F600F248070147E
:1014E0007878E66403600D760180097871E664021D
:1014F00060027601AF40227F0112219512215750E0
:101500001075AE11E4F5AFE5AE20E7030215968045
:10151000F67871E66402707E786FE6FE08E6FFD327
:101520009440EE940040047F4080008F3F7E00C3D3
:101530007870E69FF618E69EF618EF26F618EE3657
:10154000F67872E613920A786FE6FE08E6FFD39407
:1015500000EE9400401FD3EF9440EE940040047DD1
:101560004080047870E6FD786C1202CBD2127F01C5
:1015700012194780097872E654FEF6187601300A8F
:1015800015E53FFB7A00786FE6F54708E6F548E495
:10159000FD7F01120C3C228F168B178A1889198542
:1015A000A71DE516600C24FE600880001200417F34
:1015B000FC22E516600A785AE6640660037FF7228B
:1015C000E51675F007A42465F9891CE51C2405F8C7
:1015D000E6FF64016009EF7FFEB405027FFB221283
:1015E0002219920F75A71053CEFEAB17AA18A9198E
:1015F000A81C1202D4E51C2403F8A61A08A61BE5B1
:101600001C2405F87603A20EE4335401FFE51C24E4
:1016100006F8E654FE4FF654F7F6300F0675A7109D
:1016200043CE01851DA77F0022786BE613920A1234
:1016300021CC8F40C37869E69F18E69400500E785D
:101640006A760108E64402F67541F2805578651223
:1016500002CBAD40E4FF121C21AF407E007867EF63
:1016600026F618EE36F6C37869E69FFF18E69EFE6A
:10167000F608EFF6E4F541EF4E701CE5406440607B
:101680001675AE1175AF48E5AE20E7FB786A7601B6
:1016900008E654FEF6800B75AE1175AF40E5AE203E
:1016A000E7FB300A15E540FB7A007868E6F5470865
:1016B000E6F548AD41E4FF120C3C227540FF78632B
:1016C000E618466003021748785CE6541F24FE7053
:1016D000777860E6FE08E6547FFF4E700D785AE694
:1016E000C394044005E4F540805EC3EF9403EE9498
:1016F000005055785FE61846704E785AE6640670DA
:1017000047F5407861E6547FFF1221957861E63015
:10171000E70B75AE1175AF10E5AE20E7FB7861E61B
:1017200020E71075AE94E5AE20E7FB43AF20E5AEB1
:1017300020E7FB7861E6247F600A2480700A7878CD
:101740007606800478717606AF402212007A787FA0
:10175000E4F6D8FD758182021795020B35E493A358
:10176000F8E493A34003F68001F208DFF48029E453
:1017700093A3F85407240CC8C333C4540F4420C89F
:10178000834004F456800146F6DFE4800B01020436
:101790000810204080901ED5E47E019360BCA3FF1A
:1017A000543F30E509541FFEE493A360010ECF546B
:1017B000C025E060A840B8E493A3FAE493A3F8E45A
:1017C00093A3C8C582C8CAC583CAF0A3C8C582C8C6
:1017D000CAC583CADFE9DEE780BEAE07E4FB12219B
:1017E00095300C13A80674107E00088005C333CE14
:1017F00033CED8F9FF8013AF0674207E00A8070807
:101800008005C333CE33CED8F9FFD3ED9FEC9E5085
:1018100003430380300D03430340300B2043032078
:10182000300C0343030475AE1175AF40E5AE20E7FD
:10183000FB75AE128BAFE5AE30E72580F975AE14BF
:1018400075AF80E5AE20E7FB75AE158BAFE5AE203A
:10185000E7FB200C0B75AE12E4F5AFE5AE20E7FB1D
:10186000221200568F338E328D318C3085A734E4AE
:10187000F5A7E5335410FFE4FEFCEF60189002CCAE
:10188000E4F0A37400F0A3742EF07B017A0079D306
:101890007D64121D90E53354A0FFE4FEFDFCEF6073
:1018A0000E5391FBE5335480FFEF600312222DE5C8
:1018B000335404FFE4FEFDFCEF601D12041190029E
:1018C000CCE4F0A37400F0A3742EF07B017A0079CD
:1018D000D37D647C00121D908534A7228F45E4F5EA
:1018E0004785A748E5456005C394034008120041B9
:1018F0007547FC8043122219920B75A71053CEFE38
:10190000E54575F007A42465F98946E5462405F800
:10191000E664016023E54524FE600A04700C7F0143
:10192000121D2880057F01121D5CE5462405F8760E
:1019300001E5462406F8E4F6300B0675A71043CE01
:10194000018548A7AF47228F518D528B538A548906
:1019500055E5AE20E7FBE5514420F5AEE5531460B4
:10196000132403601A146020147026AD55AF521270
:1019700020A3801DAC54AD55AF521220398012AD5A
:1019800055AF521220B78009AC54AD55AF5212205A
:101990000C30121CE551D394004015AF5112219523
:1019A00075AE91E5AE20E7FB43AF01E5AE20E7FB66
:1019B0002285A735120046400320B15A75A720534F
:1019C000B3BC75A72053B5F843B5011221F49209B1
:1019D00075A71053C1CF1221FC5010D20875A72053
:1019E00043C602E4FF0FBF03FC8002C208121FA01F
:1019F00012004640F830B1F530080675A72053C6EE
:101A0000FD30090675A71043C13075A72053B5F8FE
:101A100075A72043B3408535A7227540FF785EE661
:101A2000FE08E6FFC39480EE9400504D7863E618FC
:101A3000467046785CE6541F703F7861E618467041
:101A400038785AE6B4030BEF4E60197F04121E2556
:101A50008012785AE6B4040F785FE6184670057F66
:101A600003121E25E4F540E540700EF5AE785FE602
:101A70004480F5AFE5AE20E7FBAF402275405CA99E
:101A8000407A007B007D08E4FF121C21E54024021F
:101A9000F8E6FC08E6FAECFFEAFEE5402402F8A6C8
:101AA0000608A607E5402404F8E6FC08E6FAECFF81
:101AB000EAFEE5402404F8A60608A607E540240649
:101AC000F8E6FC08E6FAECFFEAFEE5402406F8A694
:101AD0000608A60722E4FF785DE612033F1AFC0021
:101AE0001B01011B06031B0B051B10061B15081B06
:101AF0001A091B1F0A1B240B00001B291212F2805B
:101B00002A12144F80251216BB8020121A1A801B2D
:101B1000120D3F8016121C688011121187800C1262
:101B200000038007121DF480027FFF228F438D4443
:101B3000E544B4051490003E120282EF4480FFECAD
:101B400090003E12028E122171E544B406119000FD
:101B50003E120282EF4440FFEC90003E12028EE5FE
:101B600044C394065003122171900042E030E00F0C
:101B700090003E120282EC4D4E4F600312204F2225
:101B80008B248A258926E4F52CF52DE52B152BAE23
:101B90002A7002152A4E6033AB27AA28A929120001
:101BA0007EFFAB24AA25A926052DE52DAC2C7002BD
:101BB000052C14F5828C83EF1203C4EF60CD740101
:101BC0002529F529E43528F52880C0AB24AA25A9C4
:101BD0002622C0E0C0D075D000C006C007AFA775F0
:101BE000A700E5FD5404FEE58054046E600F3082CA
:101BF0000543FD048020B20153FDFB8019E5FD542F
:101C000008FEE58054086E600D30830543FD0880B2
:101C100005B20253FDF78FA7D007D006D0D0D0E091
:101C2000328F428D438B448A458946E543D39400E5
:101C30004035E5AE20E7FBE54244E0F5AEE544146F
:101C400060112403601824FE701DAD46AB42AF4303
:101C5000021FBDAC45AD46AB42AF43021F41AD468E
:101C6000AB42AF43121F81227FFF7861E6184670B6
:101C70003D18E6184670377863E664011846702E02
:101C8000785CE6FE30E727541F7023785AE6B404E8
:101C9000087BFF7A23796E800C785AE6B4060F7BB6
:101CA000007A0079587D017C00121FF3E4FF22C204
:101CB000D5E830E70FB2D5E4C39BFBE49AFAE49988
:101CC000F9E498F8EC30E717B2D5121CE51201CC14
:101CD000E4C39BFBE49AFAE499F9E498F8800312D0
:101CE00001CC30D50DE4C39FFFE49EFEE49DFDE4EE
:101CF0009CFC22786A76017871760678787606758B
:101D0000AE0F75AF8FE5AE20E7FB75AE0175AF0185
:101D1000E5AE20E7FB75AE0B75AF0FE5AE20E7FB38
:101D20007F03121E25021EFA12219575AE1175AFA2
:101D300008E5AE20E7FB75AE91E5AE20E7FBE5AF29
:101D400020E3F375AE1175AF08E5AE20E7FB75AE85
:101D500091E5AE20E7FBE5AF20E3F3221221957574
:101D6000AE1475AF10E5AE20E7FB75AE94E5AE207E
:101D7000E7FBE5AF20E4F375AE1475AF10E5AE20D8
:101D8000E7FB75AE94E5AE20E7FBE5AF20E4F32278
:101D90009002C71202E69002CC1202DD90005E12A1
:101DA00002E6E4F5F0120171900061ECF0A3EDF0B1
:101DB0009002C71202DD8C1A8D1BD20E7F02121503
:101DC00097229002C71202E69002CC1202DD900028
:101DD0005B1202E6E4F5F0120171900063ECF0A3EF
:101DE000EDF09002C71202DD8C4D8D4ED2107F01B6
:101DF0001210CA227FFF7861E6FE785FE6FDEEC32F
:101E000094015020785AE6B4061A7863E6184670B2
:101E100013ED7010785CE6541FFEBE0107C20A1273
:101E20001EACE4FF228F41785AE6F542C394054088
:101E300009E54194055003121E55E541B4050478A7
:101E40005BA642785AA641E54265416007AD41AFC5
:101E500042121B2C2285A744122219920A75A71040
:101E600053CEFE754301AF431218DC0543E543C36F
:101E7000940340F2300A0675A71043CE018544A7AB
:101E80002285A72E1221D71220CB1220DE1220236A
:101E90001222041221041200761221EB12221212D5
:101EA00020F1121FDA12220B852EA722300A0878A1
:101EB00071760178787601D20BD20CC20D7D407C10
:101EC000007F011217DAC20BD20CC20D7D407C00DC
:101ED0007F010217DAC101C102C107C106C105C1F4
:101EE00003C104C10002100014020E0000020C0025
:101EF00000020A0000020800000090003E12029A50
:101F000000000001122171900042E030E00F9000CB
:101F10003E120282EC4D4E4F600312204F22AD075D
:101F2000ED4480F5AEE5AE20E7FBAFAFEF7F00FEFE
:101F3000ED144480F5AEE5AE20E7FBADAFED420712
:101F4000228D828C831FEF600BE5AE20E7FBE5AFAF
:101F5000F0A380F1E5AE20E7FBEB4420F5AEE5AF62
:101F6000F022C0E0C0D075D000C007AFA775A710A1
:101F7000E59130E70353917F8FA7D007D0D0D0E011
:101F800032A8051FEF600BE5AE20E7FBE5AFF208D6
:101F900080F1E5AE20E7FBEB4420F5AEE5AFF222A1
:101FA000E5A9547FFF75A930E4F5A7439A408FA9AE
:101FB000E5A9547F6F6005E4F5A98FA922A8051F44
:101FC000EF600AE5AE20E7FBA6AF0880F2E5AE20A1
:101FD000E7FBEB4420F5AEA6AF22E5915404539104
:101FE000FB4391037595F87594067593FF7592F60A
:101FF000429122786AE6B4011278651202D47868B8
:10200000A60408A605087602E408F6228D828C83D1
:10201000AE071FEE600CE5AE20E7FBE493F5AFA33F
:1020200080EE2275A00775A60875A72075F30F75B9
:10203000CC08E4F5FC75FB0F228D828C83AE071F64
:10204000EE600BE5AE20E7FBE0F5AFA380EF22905A
:102050000057E0700E04F0A31202DD120365E49055
:102060000057F022AFA7786A760175A72043B380A6
:1020700075A72043B3408FA722E4FF122195786A09
:10208000760575AE1175AF60E5AE20E7FB22E4FF83
:10209000FE12007E600C0FEF70010E09E970F20A6B
:1020A00080EF22A805AE071FEE600BE5AE20E7FB30
:1020B000E6F5AF0880EF22A805AE071FEE600BE53E
:1020C000AE20E7FBE2F5AF0880EF227580FF75A434
:1020D0000275F1FF75D43F75FE0C75FDFF227590FA
:1020E000FF75A57B75F27B75D58FE4F5EE75EDFF79
:1020F00022E4F5A7F5A9E5A930E7FB75A903E5A951
:1021000030E7FB2275BB1F75BC7953E8F843E883C1
:10211000E4F5B3229000581202E6900042E0440138
:10212000F022785AE6C3940240057F05121E25224C
:1021300075AE91E5AE20E7FBE5AFA2E42275AE9166
:10214000E5AE20E7FBE5AFA2E22275AE91E5AE2059
:10215000E7FBE5AFA2E12275AE91E5AE20E7FBE536
:10216000AFA2E52275AE94E5AE20E7FBE5AFA2E6AF
:1021700022E4900061F0A3F0A3F0A3F02275AE91E9
:10218000E5AE20E7FBE5AF132275AE94E5AE20E7A0
:10219000FBE5AF132275AE0E8FAFE5AE20E7FB2255
:1021A00075AE86E5AE20E7FBAFAF2275AE82E5AE39
:1021B00020E7FBAFAF2275AE84E5AE20E7FBAFAF03
:1021C0002275AE8EE5AE20E7FBAFAF2275AE96E589
:1021D000AE20E7FBAFAF22E4F5A77597DE7597ADAC
:1021E00022900019E0C330E601D32243B180E5B16B
:1021F00030E6FB2275A710E5C1A2E52275A720E510
:10220000C633B322E4F5A775E3402275E68A75A8C4
:10221000802275A71075C1302275A710E5CE132254
:10222000785BE6FF021E257F17121F1E220219B1DE
:10223000221201000200000040C410000000010151
:10224000020301090220000101008032090400009C
:1022500002FF00000007058102400000070501029F
:102260004000000403090412034D005300460054CB
:10227000003100300030000100280000000001049F
:10228000000100000000000000000157494E5553B6
:1022900042000000000000000000000000000000FC
:1022A0000092000000000105000100880000000706
:1022B0000000002A004400650076006900630065A4
:1022C0000049006E007400650072006600610063E2
:1022D00000650047005500490044007300000050AD
:1022E0000000007B0033004300350045003100341E
:1022F00000360032002D0035003600390035002D43
:102300000034006500310038002D003800370036F9
:102310000042002D004600330046003300440030E8
:10232000003800410041004600310038007D0000C7
:10233000000000011A0353696C69636F6E204C61E1
:10234000627300011603546573742050616E656CEE
:1023500000010A03303030310010C4EA61FF23333A
:10236000FF2343FF2351328001000080010500005C
:00000001FF
